:020000040800F2
:1000000000000220455A0008092B00080B2B0008AD
:100010000D2B00080F2B0008112B0008000000001A
:10002000000000000000000000000000132B00088A
:10003000152B000800000000172B0008192B0008E2
:10004000955A0008955A0008955A0008955A0008D4
:10005000955A0008955A0008955A0008955A0008C4
:10006000955A0008955A0008955A0008955A0008B4
:10007000955A0008955A0008955A0008955A0008A4
:10008000955A0008955A0008212B0008000000002E
:10009000000000000000000000000000955A000869
:1000A000312B0008412B0008792B0008892B000810
:1000B000955A0008992B0008955A0008955A00088F
:1000C000955A0008955A0008955A0008955A000854
:1000D000955A0008D52F0008955A00080000000026
:1000E000955A0008955A0008955A0008000000002B
:1000F000000000000000000000000000955A000809
:1001000000000000955A0008955A0008955A00080A
:1001100000000000000000000000000000000000DF
:10012000F52F0008955A0008955A0008955A0008BE
:10013000955A0008000000000000000000000000C8
:10014000000000000000000000000000955A0008B8
:10015000955A0008955A0008955A0008955A0008C3
:10016000955A0008955A00080000000000000000A1
:10017000000000000000000000000000000000007F
:1001800000000000955A0008000000000000000078
:08019000955A0008955A000879
:1001C00010B5054C237833B9044B13B10448AFF391
:1001D00000800123237010BDC00900200000000032
:1001E000CCCD000808B5034B1BB103490348AFF35E
:1001F000008008BD00000000C4090020CCCD00082C
:1002000081F0004102E000BF83F0004330B54FEAC7
:1002100041044FEA430594EA050F08BF90EA020F34
:100220001FBF54EA000C55EA020C7FEA645C7FEAC7
:10023000655C00F0E2804FEA5454D4EB5555B8BFEA
:100240006D420CDD2C4480EA020281EA030382EA5B
:10025000000083EA010180EA020281EA0303362DED
:1002600088BF30BD11F0004F4FEA01314FF4801CC0
:100270004CEA113102D0404261EB410113F0004FD2
:100280004FEA03334CEA133302D0524263EB430389
:1002900094EA050F00F0A780A4F10104D5F1200E27
:1002A0000DDB02FA0EFC22FA05F2801841F1000182
:1002B00003FA0EF2801843FA05F359410EE0A5F156
:1002C00020050EF1200E012A03FA0EFC28BF4CF087
:1002D000020C43FA05F3C01851EBE37101F000453D
:1002E00007D54FF0000EDCF1000C7EEB00006EEB4A
:1002F0000101B1F5801F1BD3B1F5001F0CD34908D4
:100300005FEA30004FEA3C0C04F101044FEA44522A
:1003100012F5800F80F09A80BCF1004F08BF5FEAB1
:10032000500C50F1000041EB045141EA050130BD91
:100330005FEA4C0C404141EB0101013C28BFB1F5A3
:10034000801FE9D291F0000F04BF01460020B1FAEE
:1003500081F308BF2033A3F10B03B3F120020CDAC1
:100360000C3208DD02F1140CC2F10C0201FA0CF09F
:1003700021FA02F10CE002F11402D8BFC2F1200C04
:1003800001FA02F120FA0CFCDCBF41EA0C019040BA
:10039000E41AA2BF01EB0451294330BD6FEA040403
:1003A0001F3C1CDA0C340EDC04F11404C4F12002EE
:1003B00020FA04F001FA02F340EA030021FA04F300
:1003C00045EA030130BDC4F10C04C4F1200220FA57
:1003D00002F001FA04F340EA0300294630BD21FA95
:1003E00004F0294630BD94F0000F83F4801306BF5B
:1003F00081F480110134013D4EE77FEA645C18BF4F
:100400007FEA655C29D094EA050F08BF90EA020FE5
:1004100005D054EA000C04BF1946104630BD91EADD
:10042000030F1EBF0021002030BD5FEA545C05D1E0
:100430004000494128BF41F0004130BD14F580041F
:100440003CBF01F5801130BD01F0004545F0FE4193
:1004500041F470014FF0000030BD7FEA645C1ABFC8
:10046000194610467FEA655C1CBF0B46024650EAFF
:10047000013406BF52EA033591EA030F41F400212B
:1004800030BD00BF90F0000F04BF0021704730B5B1
:100490004FF4806404F132044FF000054FF0000186
:1004A00050E700BF90F0000F04BF0021704730B547
:1004B0004FF4806404F1320410F0004548BF40421C
:1004C0004FF000013EE700BF42004FEAE2014FEA71
:1004D00031014FEA02701FBF12F07F4393F07F4F4C
:1004E00081F06051704732F07F4208BF704793F04F
:1004F0007F4F04BF41F40021704730B54FF4607462
:1005000001F0004521F000411CE700BF50EA010264
:1005100008BF704730B54FF000050AE050EA01020D
:1005200008BF704730B511F0004502D5404261EB7D
:1005300041014FF4806404F132045FEA915C3FF4BE
:10054000D8AE4FF003025FEADC0C18BF03325FEA5B
:10055000DC0C18BF033202EBDC02C2F1200300FA0C
:1005600003FC20FA02F001FA03FE40EA0E0021FA31
:1005700002F11444BDE600BF4FEA410212F5001239
:1005800015D211D56FF47873B3EB625212D94FEADA
:10059000C12343F0004343EA505311F0004F23FAC4
:1005A00002F018BF404270474FF00000704750EA19
:1005B000013005D111F0004008BF6FF000407047D6
:1005C0004FF00000704700BF4FEA4102B2F1E04334
:1005D00024BFB3F5001CDCF1FE5C0DD901F0004C2A
:1005E0004FEAC0024CEA5070B2F1004F40EB83007A
:1005F00008BF20F00100704711F0804F21D113F1A6
:100600003872BCBF01F00040704741F480114FEADE
:100610005252C2F11802C2F1200C10FA0CF320FA67
:1006200002F018BF40F001004FEAC1234FEAD32384
:1006300003FA0CFC40EA0C0023FA02F34FEA4303EE
:10064000CCE77FEA625307D150EA01331EBF4FF077
:10065000FE4040F44000704701F0004040F0FE4092
:1006600040F40000704700BF80F0004002E000BF8F
:1006700081F0004142001FBF5FEA410392EA030F8D
:100680007FEA226C7FEA236C6AD04FEA1262D2EBD7
:100690001363C1BFD218414048404140B8BF5B42DC
:1006A000192B88BF704710F0004F40F4000020F075
:1006B0007F4018BF404211F0004F41F4000121F08B
:1006C0007F4118BF494292EA030F3FD0A2F10102D5
:1006D00041FA03FC10EB0C00C3F1200301FA03F113
:1006E00000F0004302D5494260EB4000B0F5000F36
:1006F00013D3B0F1807F06D340084FEA310102F1F5
:100700000102FE2A51D2B1F1004F40EBC25008BFA6
:1007100020F0010040EA03007047490040EB000070
:10072000013A28BFB0F5000FEDD2B0FA80FCACF171
:10073000080CB2EB0C0200FA0CF0AABF00EBC2509E
:1007400052421843BCBFD0401843704792F0000F8C
:1007500081F4000106BF80F400000132013BB5E7DF
:100760004FEA41037FEA226C18BF7FEA236C21D055
:1007700092EA030F04D092F0000F08BF08467047BA
:1007800090EA010F1CBF0020704712F07F4F04D188
:10079000400028BF40F00040704712F100723CBF9B
:1007A00000F50000704700F0004343F0FE4040F4C5
:1007B000000070477FEA226216BF08467FEA236383
:1007C0000146420206BF5FEA412390EA010F40F46E
:1007D000800070474FF0000304E000BF10F00043BA
:1007E00048BF40425FEA000C08BF704743F09643A1
:1007F00001464FF000001CE050EA010208BF7047BC
:100800004FF000030AE000BF50EA010208BF704742
:1008100011F0004302D5404261EB41015FEA010C57
:1008200002BF84460146002043F0B64308BFA3F14F
:100830008053A3F50003BCFA8CF2083AA3EBC25331
:1008400010DB01FA02FC634400FA02FCC2F1200250
:10085000BCF1004F20FA02F243EB020008BF20F087
:100860000100704702F1200201FA02FCC2F12002ED
:1008700050EA4C0021FA02F243EB020008BF20EAE2
:10088000DC7070474FF0FF0C1CEAD0521EBF1CEA10
:10089000D15392EA0C0F93EA0C0F6FD01A4480EAFE
:1008A000010C400218BF5FEA41211ED04FF00063E7
:1008B00043EA501043EA5111A0FB01310CF0004013
:1008C000B1F5000F3EBF490041EAD3715B0040EA39
:1008D000010062F17F02FD2A1DD8B3F1004F40EB09
:1008E000C25008BF20F00100704790F0000F0CF0DC
:1008F000004C08BF49024CEA502040EA51207F3AA0
:10090000C2BFD2F1FF0340EAC250704740F400007A
:100910004FF00003013A5DDC12F1190FDCBF00F06B
:1009200000407047C2F10002410021FA02F1C2F119
:10093000200200FA02FC5FEA310040F1000053EAB5
:100940004C0308BF20EADC70704792F0000F00F003
:10095000004C02BF400010F4000F013AF9D040EA09
:100960000C0093F0000F01F0004C02BF490011F49D
:10097000000F013BF9D041EA0C018FE70CEAD1539B
:1009800092EA0C0F18BF93EA0C0F0AD030F0004C1B
:1009900018BF31F0004CD8D180EA010000F00040CF
:1009A000704790F0000F17BF90F0004F084691F08D
:1009B000000F91F0004F14D092EA0C0F01D14202C7
:1009C0000FD193EA0C0F03D14B0218BF084608D190
:1009D00080EA010000F0004040F0FE4040F40000DA
:1009E000704740F0FE4040F4400070474FF0FF0C6D
:1009F0001CEAD0521EBF1CEAD15392EA0C0F93EAB4
:100A00000C0F69D0A2EB030280EA010C49024FEA05
:100A1000402037D04FF0805343EA111143EA1013BE
:100A20000CF000408B4238BF5B0042F17D024FF476
:100A3000000C8B4224BF5B1A40EA0C00B3EB510F51
:100A400024BFA3EB510340EA5C00B3EB910F24BF3A
:100A5000A3EB910340EA9C00B3EBD10F24BFA3EBBF
:100A6000D10340EADC001B0118BF5FEA1C1CE0D187
:100A7000FD2A3FF650AF8B4240EBC25008BF20F03A
:100A8000010070470CF0004C4CEA50207F32C2BF8E
:100A9000D2F1FF0340EAC250704740F400004FF02B
:100AA0000003013A37E792F0000F00F0004C02BF5C
:100AB000400010F4000F013AF9D040EA0C0093F026
:100AC000000F01F0004C02BF490011F4000F013B80
:100AD000F9D041EA0C0195E70CEAD15392EA0C0FE8
:100AE00008D142027FF47DAF93EA0C0F7FF470AF20
:100AF000084676E793EA0C0F04D14B023FF44CAF63
:100B000008466EE730F0004C18BF31F0004CCAD1F7
:100B100030F000427FF45CAF31F000437FF43CAF33
:100B20005FE700BF53B94AB9002908BF00281CBFBE
:100B30004FF0FF314FF0FF3000F074B9ADF1080C09
:100B40006DE904CE00F006F8DDF804E0DDE90223EB
:100B500004B070472DE9F047089E0D4604468846CC
:100B6000002B4DD18A42944668D9B2FA82F252B132
:100B700001FA02F3C2F1200120FA01F10CFA02FCA1
:100B800041EA030894404FEA1C45210CB8FBF5FEEE
:100B90001FFA8CF705FB1E8341EA03430EFB07F1A6
:100BA00099420BD91CEB03030EF1FF3080F01E813C
:100BB000994240F21B81AEF1020E63445B1AA4B26B
:100BC000B3FBF5F005FB103344EA034400FB07F7E1
:100BD000A7420AD91CEB040400F1FF3380F008811E
:100BE000A74240F2058164440238E41B40EA0E400B
:100BF00000211EB1D4400023C6E90043BDE8F087C0
:100C00008B4208D9002E00F0EE800021C6E90005D5
:100C10000846BDE8F087B3FA83F100294AD1AB4218
:100C200002D3824200F2F980841A65EB03030120AB
:100C30009846002EE2D0C6E90048DFE702B9FFDEA1
:100C4000B2FA82F2002A40F09180A1EB0C054FEA43
:100C50001C471FFA8CFE0121B5FBF7F307FB13506D
:100C6000250C45EA00450EFB03F0A84208D91CEB11
:100C7000050503F1FF3802D2A84200F2CB804346BB
:100C80002D1AA4B2B5FBF7F007FB105544EA054452
:100C90000EFB00FEA64508D91CEB040400F1FF354D
:100CA00002D2A64500F2BB802846A4EB0E0440EA1F
:100CB00003409EE7C1F120078B4022FA07FC4CEA73
:100CC000030C20FA07F405FA01F31C43FD404FEA38
:100CD0001C4900FA01F3B5FBF9F8200C1FFA8CFE51
:100CE00009FB185540EA054508FB0EF0A84202FA38
:100CF00001F20BD91CEB050508F1FF3A80F0888062
:100D0000A84240F28580A8F1020865442D1AA4B2D9
:100D1000B5FBF9F009FB105544EA054500FB0EFE52
:100D2000AE4508D91CEB050500F1FF346CD2AE4589
:100D30006AD90238654440EA0840A0FB0294A5EB5A
:100D40000E05A542C846A64656D353D05EB1B3EBB6
:100D5000080265EB0E0505FA07F722FA01F3CD400C
:100D60001F43C6E900750021BDE8F087C2F12003EA
:100D700020FA03F10CFA02FC25FA03F395400D4327
:100D80004FEA1C471FFA8CFEB3FBF7F107FB11304B
:100D90002B0C43EA004301FB0EF0984204FA02F4E4
:100DA00008D91CEB030301F1FF382FD298422DD94B
:100DB000023963441B1AADB2B3FBF7F007FB1033E3
:100DC00045EA034500FB0EF3AB4208D91CEB0505D1
:100DD00000F1FF3816D2AB4214D902386544ED1A3F
:100DE00040EA014138E73146304607E78646E5E606
:100DF0001846FAE64B45A9D2B9EB020864EB0C0E93
:100E00000138A3E74046EAE7204694E74146D1E7A8
:100E1000D0467BE7023B654432E7084609E7644475
:100E2000023842E7704700BF0000000000000000E9
:100E300001F0FF01102A2BDB10F0070F08D010F88B
:100E4000013B013A8B422DD010F0070F42B3F6D18F
:100E5000F0B441EA012141EA014122F007047FF0A8
:100E600000070023F0E80256083C85EA010586EAFF
:100E7000010685FA47F5A3FA87F586FA47F6A5FA3B
:100E800087F68EB9EED1F0BC01F0FF0102F0070247
:100E900032B110F8013B013A83EA010313B1F8D1F2
:100EA0000020704701387047002D06BF35460338D3
:100EB000073815F0010F07D1013015F4807F02BF0C
:100EC000013015F4C03F0130F0BC0138704700BF5D
:100ED000844641EA000313F003036DD1403A41D345
:100EE00051F8043B40F8043B51F8043B40F8043B04
:100EF00051F8043B40F8043B51F8043B40F8043BF4
:100F000051F8043B40F8043B51F8043B40F8043BE3
:100F100051F8043B40F8043B51F8043B40F8043BD3
:100F200051F8043B40F8043B51F8043B40F8043BC3
:100F300051F8043B40F8043B51F8043B40F8043BB3
:100F400051F8043B40F8043B51F8043B40F8043BA3
:100F500051F8043B40F8043B51F8043B40F8043B93
:100F6000403ABDD2303211D351F8043B40F8043B33
:100F700051F8043B40F8043B51F8043B40F8043B73
:100F800051F8043B40F8043B103AEDD20C3205D343
:100F900051F8043B40F8043B043AF9D2043208D03B
:100FA000D2071CBF11F8013B00F8013B01D30B88AD
:100FB00003806046704700BF082A13D38B078DD08B
:100FC00010F003038AD0C3F10403D21ADB071CBF5D
:100FD00011F8013B00F8013B80D331F8023B20F8C7
:100FE000023B7BE7043AD9D3013A11F8013B00F800
:100FF000013BF9D20B7803704B7843708B78837088
:101000006046704700000000000000000000000083
:1010100000000000000000000000000000000000D0
:1010200000000000000000000000000000000000C0
:1010300000000000000000000000000000000000B0
:1010400090F800F06DE9024520F007016FF0000C08
:1010500010F0070491F820F040F049804FF00004B0
:101060006FF00700D1E9002391F840F000F108008B
:1010700082FA4CF2A4FA8CF283FA4CF3A2FA8CF3C3
:101080004BBBD1E9022382FA4CF200F10800A4FA2A
:101090008CF283FA4CF3A2FA8CF3E3B9D1E904237E
:1010A00082FA4CF200F10800A4FA8CF283FA4CF3B5
:1010B000A2FA8CF37BB9D1E9062301F1200182FA6F
:1010C0004CF200F10800A4FA8CF283FA4CF3A2FA75
:1010D0008CF3002BC6D0002A04BF04301A4612BA83
:1010E000B2FA82F2FDE8024500EBD2007047D1E986
:1010F000002304F00305C4F100004FEAC50514F015
:10110000040F91F840F00CFA05F562EA05021CBFE5
:1011100063EA050362464FF00004A9E770B54FF09B
:10112000FF0C4CF4E06C1CEA11541DBF1CEA135573
:1011300094EA0C0F95EA0C0F00F0DEF82C4481EADB
:10114000030621EA4C5123EA4C5350EA013518BFFB
:1011500052EA033541F4801143F4801338D0A0FBE8
:1011600002CE4FF00005E1FB02E506F00042E0FB95
:1011700003E54FF00006E1FB03569CF0000F18BF9B
:101180004EF0010EA4F1FF04B6F5007F64F5407443
:1011900004D25FEA4E0E6D4146EB060642EAC621D6
:1011A00041EA55514FEAC52040EA5E504FEACE2E43
:1011B000B4F1FD0C88BFBCF5E06F1ED8BEF1004F46
:1011C00008BF5FEA500E50F1000041EB045170BDC2
:1011D00006F0004646EA010140EA020081EA030106
:1011E000B4EB5C04C2BFD4EB0C0541EA045170BD02
:1011F00041F480114FF0000E013C00F3AB8014F17C
:10120000360FDEBF002001F0004170BDC4F10004C4
:10121000203C35DA0C341BDC04F11404C4F1200545
:1012200000FA05F320FA04F001FA05F240EA0200A0
:1012300001F0004221F0004110EBD37021FA04F6D6
:1012400042EB06015EEA430E08BF20EAD37070BD90
:10125000C4F10C04C4F1200500FA04F320FA05F0EF
:1012600001FA04F240EA020001F0004110EBD370F1
:1012700041F100015EEA430E08BF20EAD37070BD61
:10128000C4F1200500FA05F24EEA020E20FA04F33A
:1012900001FA05F243EA020321FA04F001F00041E9
:1012A00021FA04F220EA020000EBD3705EEA430E5A
:1012B00008BF20EAD37070BD94F0000F0FD101F089
:1012C0000046400041EB010111F4801F08BF013CC2
:1012D000F7D041EA060195F0000F18BF704703F000
:1012E0000046520043EB030313F4801F08BF013D87
:1012F000F7D043EA0603704794EA0C0F0CEA135543
:1013000018BF95EA0C0F0CD050EA410618BF52EAFC
:101310004306D1D181EA030101F000414FF0000002
:1013200070BD50EA410606BF1046194652EA430610
:1013300019D094EA0C0F02D150EA013613D195EA84
:101340000C0F05D152EA03361CBF104619460AD1CC
:1013500081EA030101F0004141F0FE4141F47001D6
:101360004FF0000070BD41F0FE4141F4780170BDC6
:1013700070B54FF0FF0C4CF4E06C1CEA11541DBF2B
:101380001CEA135594EA0C0F95EA0C0F00F0A7F82D
:10139000A4EB050481EA030E52EA03354FEA01315A
:1013A00000F088804FEA03334FF0805545EA13136D
:1013B00043EA12634FEA022245EA111545EA106535
:1013C0004FEA00260EF000419D4208BF964244F1CC
:1013D000FD0404F5407402D25B084FEA3202B61AEB
:1013E00065EB03055B084FEA32024FF480104FF4BF
:1013F000002CB6EB020E75EB030E22BFB61A754633
:1014000040EA0C005B084FEA3202B6EB020E75EBC5
:10141000030E22BFB61A754640EA5C005B084FEA2D
:101420003202B6EB020E75EB030E22BFB61A7546FA
:1014300040EA9C005B084FEA3202B6EB020E75EB05
:10144000030E22BFB61A754640EADC0055EA060EC6
:1014500018D04FEA051545EA16754FEA06164FEA09
:10146000C30343EA52734FEAC2025FEA1C1CC0D1B5
:1014700011F4801F0BD141EA00014FF000004FF042
:10148000004CB6E711F4801F04BF01430020B4F103
:10149000FD0C88BFBCF5E06F3FF6AFAEB5EB030CBB
:1014A00004BFB6EB020C5FEA500C50F1000041EBB8
:1014B000045170BD0EF0004E4EEA113114EB5C0485
:1014C000C2BFD4EB0C0541EA045170BD41F4801158
:1014D0004FF0000E013C90E645EA060E8DE60CEA60
:1014E000135594EA0C0F08BF95EA0C0F3FF43BAF7D
:1014F00094EA0C0F0AD150EA01347FF434AF95EA34
:101500000C0F7FF425AF104619462CE795EA0C0F17
:1015100006D152EA03353FF4FDAE1046194622E7E4
:1015200050EA410618BF52EA43067FF4C5AE50EABE
:1015300041047FF40DAF52EA43057FF4EBAE12E7AE
:101540004FF0FF3C06E000BF4FF0010C02E000BF8F
:101550004FF0010C4DF804CD4FEA410C7FEA6C5C72
:101560004FEA430C18BF7FEA6C5C1BD001B050EA15
:10157000410C0CBF52EA430C91EA030F02BF90EA00
:10158000020F0020704710F1000F91EA030F58BFBF
:10159000994208BF90422CBFD8176FEAE37040F021
:1015A000010070474FEA410C7FEA6C5C02D150EABF
:1015B000013C07D14FEA430C7FEA6C5CD6D152EA7A
:1015C000033CD3D05DF8040B704700BF844610463F
:1015D00062468C461946634600E000BF01B5FFF73E
:1015E000B7FF002848BF10F1000F01BD4DF808ED0E
:1015F000FFF7F4FF0CBF012000205DF808FB00BFDF
:101600004DF808EDFFF7EAFF34BF012000205DF838
:1016100008FB00BF4DF808EDFFF7E0FF94BF012085
:1016200000205DF808FB00BF4DF808EDFFF7CEFF86
:1016300094BF012000205DF808FB00BF4DF808EDC5
:10164000FFF7C4FF34BF012000205DF808FB00BF96
:101650004FEA410C7FEA6C5C02D150EA013C0AD1AE
:101660004FEA430C7FEA6C5C02D152EA033C02D1A0
:101670004FF0000070474FF001007047F8B5064684
:101680004FF0E0239C6901F063FD054606EBC606BA
:10169000F700B4EBC60F0ED201F05AFDA842FBD002
:1016A000E41B04F58C3303F5A0734FF0E02292693C
:1016B0009A42FAD8F8BDE41B4FF0E0239B69A3429D
:1016C000F8D901F045FDA842F6D0F3E700B587B0A0
:1016D0000023019302930393049305934FF4007343
:1016E00001930123029303930223049301A9034866
:1016F00002F0A4FA07B05DF804FB00BF000402404A
:1017000000B587B0002301930293039304930593DC
:101710004FF400730193012303930223049301A95F
:10172000024802F08BFA07B05DF804FB00040240A7
:1017300010B5FFF7CBFF0A4C00224FF40071204692
:1017400002F063FB142001F009FD01224FF4007147
:10175000204602F05AFB1E20FFF790FF10BD00BF8D
:101760000004024010B5FFF7CBFF00244FF40071D6
:10177000124802F043FB38B1632C05D80134E4B2BF
:101780000120FFF77BFFF1E7632C12D8002404E06F
:101790000134E4B20120FFF771FF4FF400710748F4
:1017A00002F02CFB08B9632CF2D9632C03D800207B
:1017B00010BD0120FCE70120FAE700BF0004024051
:1017C00038B5002504E00135EDB20120FFF756FFE2
:1017D0004FF40071104802F011FB044640B1632D34
:1017E000F1D9002404E00134E4B20120FFF746FF00
:1017F0004FF40071084802F001FB08B9632CF2D9DC
:101800002820FFF73BFF4FF40071034802F0F6FA7F
:1018100000B1012038BD00BF0004024038B50020EF
:10182000054607E04000C4B2FFF7CAFF2043C0B23C
:101830000135EDB2072DF5D938BD000010B5FFF721
:1018400077FFFFF78FFF044638B1012013E0FFF761
:10185000E5FF0C4B18550134E4B2042CF7D9094AC2
:1018600010785378034491780B44D4782344127948
:10187000934201D0002010BD034B1870034B197028
:101880000020F8E7DC090020E1090020E20900203F
:10189000034B1B780B70034B1B780370704700BF22
:1018A000E1090020E209002008B510B1344B012203
:1018B0001A70334B1B782BB34FF48071314802F010
:1018C0009DFA28B14FF400712E4802F097FA68B9DA
:1018D0000A2001F043FC2A4B00221A704FF4807159
:1018E000284802F08BFAB0B9012013E00421264801
:1018F00002F084FA0028EBD00121244802F07EFA9D
:101900000128E5D04FF480711E4802F077FA0128D3
:1019100014D0002008BD4FF400711A4802F06EFA8E
:1019200030B30421184802F069FA18B301211748AE
:1019300002F064FA01281FD00020EBE74FF4007199
:10194000104802F05BFA012801D00020E2E70421F0
:101950000D4802F053FA012801D00020DAE70121F6
:101960000A4802F04BFA48B9054B01221A70D1E738
:101970000220CFE70320CDE70420CBE70020C9E712
:101980000000002000080240000C0240000002405D
:10199000F0B58BB00024059406940794089409943C
:1019A0000094434B1A6B42F004021A631A6B02F064
:1019B00004020092009A01941A6B42F080021A63AA
:1019C0001A6B02F080020192019A02941A6B42F0A3
:1019D00001021A631A6B02F001020292029A039446
:1019E0001A6B42F008021A631A6B02F008020392A3
:1019F000039A04941A6B42F002021A631B6B03F001
:101A000002030493049B2B4F0122FF21384602F06E
:101A1000FCF922464FF4E051384602F0F6F9264E22
:101A200022464FF40A71304602F0EFF901224FF4DA
:101A30008871304602F0E9F941F6FF43059301252C
:101A400006950795089405A9384602F0F7F805951C
:101A500006940223079305A9184802F0EFF84FF403
:101A6000407305930694079505A9384602F0E6F8F9
:101A7000042305930694079505A9114802F0DEF8A2
:101A80004FF49C73059306950795089405A9304675
:101A900002F0D4F84FF400730593069507950323DD
:101AA000089305A9304602F0C9F80BB0F0BD00BF9D
:101AB00000380240000802400004024000000240DA
:101AC000000C024000B583B000210191094B1A6B54
:101AD00042F480021A631B6B03F480030193019BA1
:101AE0000A46382001F036FE382001F06BFE03B0C4
:101AF0005DF804FB0038024000487047EC09002004
:101B000000487047F009002082B00B4B1B6801931E
:101B100000209DF8043063F307009DF8053063F35F
:101B20000F209DF8063063F317409DF8073063F3EC
:101B30001F6002B0704700BFF809002010B586464C
:101B40008446044C0FCCACE80F002368CCF800307E
:101B5000704610BDFC09002000487047EC110020C1
:101B600000487047E811002002460020135C013055
:101B7000002BFBD17047002300E00133CA5C2AB17F
:101B800010F803C06245F8D000207047012070476C
:101B900008B5002300E001331946C25C3D2AFAD1A2
:101BA0000131084403F078FF08BD2DE9F04784B007
:101BB000884691469A4600231D46C25C3D2A01D0C4
:101BC0000133F9E701350544002301930293ADF891
:101BD0000C301C461E4625E001A803F05DFF88F886
:101BE00000002EE001A803F057FF89F800002AE06A
:101BF00001A803F051FF8AF8000026E001A803F0D5
:101C00004BFF0C9B187022E004AB0344002203F846
:101C10000C2C01300728F7DD3B783B2B1ED0002130
:101C200001340B462F192A5DA2B1591C04A80344A4
:101C300003F80C2C2B5D2C2B01D03B2BF0D1002E6C
:101C4000CAD0012ECED0022ED2D0032ED6D001364D
:101C50000020DFE7002004B0BDE8F0870120FAE7AC
:101C60002DE9F04784B0884691469A4600231D46E8
:101C7000C25C3D2A01D00133F9E701350544002358
:101C800001930293ADF80C301C461E461FE001A8DC
:101C900003F002FF88F8000028E001A803F0FCFE32
:101CA00089F8000024E001A803F0F6FE8AF800009D
:101CB00020E004AB0344002203F80C2C0130072879
:101CC000F7DD3B783B2B1CD0002101340B462F194C
:101CD0002A5D92B1591C04A8034403F80C2C2B5D17
:101CE0002C2B01D03B2BF0D1002ED0D0012ED4D004
:101CF000022ED8D001360020E1E7002004B0BDE874
:101D0000F0870120FAE70000F0B583B004460D46E5
:101D100016460C4F002201A9384602F032FE8DF81B
:101D200006608DF805508DF80740019B064A136048
:101D3000064A1360002201A9384602F084FD03B070
:101D4000F0BD00BF98120020F8090020D813002031
:101D5000F0B587B004460F461546134E002201A980
:101D6000304602F0E6FD01348DF804408DF8057030
:101D70008DF806500D4C0DF1040CBCE80F000FC49B
:101D8000DCF8003023600A4C0DF1040CBCE80F00B5
:101D90000FC4DCF800302360002201A9304602F0B5
:101DA000D3FC07B0F0BD00BF98120020FC09002052
:101DB000DC13002008B501F037FB014B186008BDAB
:101DC000E409002008B5024801F02EFB08BD00BF61
:101DD000F01100200268494B9A4200D07047484BEE
:101DE0001B784BB9474B1B783B2B18D046490A68E8
:101DF000501C086045498B54414B1B78002BEDD09B
:101E000010B584B0404A1468631C13603D4B1978C8
:101E10003E4B195500233A490B70136012E03A49C2
:101E20000868421C0A6039490B54821C8B5C002BE9
:101E3000E2D1334B01221A70DEE7344AD15C344AD6
:101E4000D1540133A342F8DB002303E02F4A0021E1
:101E5000D1540133B3F57A7FF8DB2E492C48FFF7D4
:101E60008AFE08BB2C492A48FFF785FE40BB2B4958
:101E70002748FFF780FE48BB29492548FFF77BFE2E
:101E8000B8B10DF10F030DF10E020DF10D01204857
:101E9000FFF7E6FE68B19DF80F209DF80E109DF843
:101EA0000D00FFF755FF04E01948FFF771FE1D4BC9
:101EB0001860A2B216491C4803F09BFB04B010BD89
:101EC0001348FFF765FE194B1860F2E70DF10F0399
:101ED00000930DF10E030DF10D0203A90C48FFF75D
:101EE00064FE0028E5D09DF80F309DF80E209DF887
:101EF0000D109DF80C00FFF707FFDAE70010014016
:101F0000F4090020100A0020FC0D0020000E002023
:101F1000140A0020E8CD0008FCCD00080CCE000813
:101F200014CE0008EC11002090130020E8110020CE
:101F3000014B1868704700BFD413002072B6FEE74B
:101F400008B50A480A4B03604FF4E13343600023AD
:101F50008360C36003610C2242618361C36103F04B
:101F6000ADFA00B908BDFFF7E9FF00BF90130020EC
:101F70000010014000B587B0002301930293039342
:101F80000493059300932348234A026043607F2211
:101F90008260FF22C26003614361836102F067FBDC
:101FA00050B901211B4802F00FFD43F2F223984281
:101FB00004D107B05DF804FBFFF7C0FF00238DF8E4
:101FC00004308DF805308DF8063004930593012216
:101FD00001A9104802F0B8FBB8B901228DF8002021
:101FE00010238DF8013026238DF8023021238DF83F
:101FF00003306946074802F026FC40B943F2F2225A
:102000000121044802F0DBFCD3E7FFF797FFFFF75D
:1020100095FF00BF981200200028004000B587B04F
:1020200000230293039304930593009301931448B0
:10203000144A026042F27F52426083601322C260FF
:1020400003618023836102F0C5FE90B94FF4805391
:10205000029302A90A4802F0C1FF60B9002300936D
:1020600001936946064803F0BFF830B907B05DF840
:1020700004FBFFF763FFFFF761FFFFF75FFF00BFA0
:10208000481300200004004000B585B000230093F1
:102090000193029303931348134A026043608360E1
:1020A00003610122027680F82030C3620F49816209
:1020B000C360C26180F83030426101F0FDF860B960
:1020C000012300930193072302936946054801F019
:1020D00057FA20B905B05DF804FBFFF72FFFFFF7B3
:1020E0002DFF00BFF0110020002001400100000F73
:1020F00000B58FB000230A930B930C930D930893B4
:102100000993019302930393049305930693079312
:102110001F484FF08042026041F61F4242608360D8
:102120006322C26003618023836102F053FE28BBF7
:102130004FF480530A930AA9154802F04FFFF8B9EB
:10214000134802F073FEE8B900230893099308A925
:102150000F4803F049F8B8B9602301936423029350
:1021600000220392059201A9094802F0BDFE68B958
:10217000074800F05FFC0FB05DF804FBFFF7DEFEE0
:10218000FFF7DCFEFFF7DAFEFFF7D8FEFFF7D6FE1B
:102190000013002000B587B000230293039304933B
:1021A0000593009301931448144A026040F2CF2231
:1021B000426083600922C2600361436180238361BE
:1021C00002F008FE90B94FF48053029302A90A4826
:1021D00002F004FF60B900230093019369460648AA
:1021E00003F002F830B907B05DF804FBFFF7A6FE74
:1021F000FFF7A4FEFFF7A2FEB81200200000014086
:1022000000B59BB0302200210EA803F073FC002320
:1022100009930A930B930C930D93039304930593E3
:102220000693079308930193254A116C41F080515E
:102230001164126C02F080520192019A0293214BB8
:102240001A6842F440421A601B6803F44043029348
:10225000029B05230E934FF480330F9301231093B9
:10226000022214924FF480031593042316934821FD
:102270001791189219930EA801F0CEFDC8B90F233B
:10228000099302210A9100230B934FF480530C937E
:102290000D9309A802F026F868B9022303934FF4BE
:1022A0008073079303A802F0F3F830B91BB05DF810
:1022B00004FBFFF743FEFFF741FEFFF73FFE00BFC1
:1022C00000380240007000402DE9F04FBDB000F032
:1022D00019FFFFF795FFFFF75BFBFFF7F3FBFFF736
:1022E0002FFEFFF747FEFFF799FEFFF7CDFEFFF742
:1022F000FFFEFFF74FFFAA4802F01EFCA94C204644
:1023000002F01AFCA84802F017FC0021204602F057
:10231000F3FEA64800F0FCFFA5480268D36843F02E
:102320002003D3600122A34903F06FFBFFF786FA75
:1023300000240A94C42221460BA803F0DBFB9E4B29
:1023400001221A600025A246A146A046DEE19B4C70
:102350009B4E00222146304602F013FB2268994B27
:102360001A60994C00222146304602F0E2FA974E5C
:102370000FCC0FC623683360EEE1024694490AA8E9
:1023800003F00AFC0AA8FFF7EFFB4FF47A7382B25E
:102390000AA9874803F0C1F8042C0DD0B9F1000F49
:1023A00033D1022C29D0032C2BD0012C40F0DB811F
:1023B000814B01221A60D6E1B9F1000F02D189F0F8
:1023C0000109EBE77D487F4B1B6803600378827847
:1023D0004178C078FFF798FCDFF8ECC166467B4F88
:1023E0000FCF0FC63B6833609CF802209CF80110A9
:1023F0009CF80000FFF7ACFCE1E76F4B02221A608B
:10240000B1E16D4B03221A60ADE16B4B1B68022BEF
:102410001DD0032B40F0A781022C00F08580032CF7
:1024200000F0B480012C70D0BAF1010F00F0D2801E
:10243000BAF1020F70D0BAF1000F40F09481634BF3
:102440001A78614B1A7064225A709A708BE1022CD0
:1024500023D0032C49D0012C11D0BAF1010F4CD05C
:10246000BAF1020F11D0BAF1000F40F07C81554B48
:10247000DA78524BDA7064225A709A7073E10AF17A
:10248000FF3ABAF1FF3FE8D19A464C4B6422DA702A
:102490005A704C4A92789A7065E1BAF1010F0AD0ED
:1024A000BAF1020F14D0BAF1000FD6D1454AD37851
:1024B0000133D370D1E743494A78531CDBB24B70E8
:1024C0003E494A700D2BC8D13E4B01225A70C4E7D9
:1024D0003C498A78531CDBB28B7038498A701F2BB9
:1024E000BBD1384B01229A70B7E70AF1010ABAF161
:1024F000030FB2D14FF0000AB9E7304B6422DA7013
:102500003049497859709A702DE10AF1FF3ABAF1D1
:10251000FF3F89D14FF0020A2B4B64221A705A7088
:102520002A4A92789A701EE1BAF1010F12D0BAF1DC
:10253000020F1DD0BAF1000F7FF476AF234A137853
:102540000133DBB21370182B7FF46EAF13460022F9
:102550001A7069E71D494A78531CDBB24B701A495F
:102560004A703C2B7FF460AF184B00225A705BE737
:1025700016498A78531CDBB28B7013498A701F2B63
:102580007FF452AF114B01229A704DE70AF1010A14
:10259000BAF1030F7FF448AF4FF0000A4FE700BFD6
:1025A0004813002000130020B8120020F011002072
:1025B00090130020100A0020D4130020F8090020F6
:1025C00098120020D8130020FC090020DC13002002
:1025D0001CCE00086C4B64221A706C494978597003
:1025E0009A70C0E0FFF72AF94FF000080DF10F01D3
:1025F0000DF10E00FFF74CF99DF80E2064490AA872
:1026000003F0CAFA0AA8FFF7AFFA624C4FF47A73E4
:1026100082B20AA9204602F080FF9DF80F205E4991
:102620000AA803F0B9FA0AA8FFF79EFA4FF47A73E2
:1026300082B20AA9204602F070FF142000F08EFD3D
:10264000564E574F39683068FEF7D0F9DFF854B16D
:10265000CBF80000FDF738FF0022534BFEF75EFD7C
:1026600045A3D3E90023FEF759FDFDF7ADFFCBF8F5
:10267000000000233B603360FDF726FF02460B4657
:102680004A490AA803F088FA0AA8FFF76DFA4FF43E
:102690007A7382B20AA9204602F03FFF444E00221C
:1026A00004A9304602F06DF99DF812309DF8102013
:1026B000019200939DF811309DF813203D490AA81E
:1026C00003F06AFA0AA8FFF74FFA4FF47A7382B25E
:1026D0000AA9204602F021FF002205A9304602F097
:1026E00028F99DF8163000939DF815309DF81420B8
:1026F00031490AA803F050FA0AA8FFF735FA4FF457
:102700007A7382B20AA9204602F007FF2B4800F034
:10271000FFFD2846FDF7D8FE06460F4609F0BAF938
:102720000022274BFEF7FAFC0022254BFDF76EFD39
:10273000FDF722FF044612A3D3E9002330463946B1
:10274000FDF764FDFDF740FF05461E4B1B685C630B
:10275000B9F1000F3FF4FBAD0020FFF7A5F80446E8
:1027600000287FF40AAE08F10108B8F1500F3FF4D9
:1027700039AF3BE7AFF300806666666666660A407F
:102780009A9999999999B93FFC090020DC13002086
:102790002CCE00089013002040CE0008EC09002049
:1027A000F0090020E80900200000303F50CE00086A
:1027B000981200205CCE000870CE0008F0110020B6
:1027C000000049400013002038B504460B4D00F0CE
:1027D00001024FF48061284601F017FBC4F3400268
:1027E0004FF40061284601F010FBC4F380024FF45F
:1027F0008051284601F009FB38BD00BF00080240A7
:1028000010B5064C01221021204601F0FEFA0022EC
:102810001021204601F0F9FA10BD00BF000402406B
:10282000F8B506460F46002413E046FA04F20C4DB4
:1028300002F001020821284601F0E7FA00222021D7
:10284000284601F0E2FA01222021284601F0DDFAB3
:102850000134072CE9DDF8B2FFF7B6FFF8BD00BF81
:102860000004024082B0002100910B4B5A6C42F4EC
:1028700080425A645A6C02F480420092009A01919C
:102880001A6C42F080521A641B6C03F0805301935F
:10289000019B02B0704700BF0038024030B589B0DC
:1028A000002303930493059306930793026803F1AF
:1028B000804303F590339A4201D009B030BD0446FD
:1028C0000025019503F58C335A6C42F480725A64EA
:1028D0005A6C02F480720192019A02951A6B42F0CE
:1028E00001021A631B6B03F001030293029B022394
:1028F00003930323049303A9134801F09FF913489A
:10290000134B036045608560C56005614FF400634B
:1029100043614FF4005383614FF48073C3610562D8
:10292000456200F0D9FF58B9084BA3639C630022AD
:102930000221122000F00EFF122000F043FFBCE73E
:10294000FFF7FCFAF0E700BF000002403812002059
:10295000106402400268044B9A4200D07047034B57
:102960000122C3F83C2EF9E700280040000047424E
:1029700010B584B003682C4A934207D0B3F1804F5E
:1029800031D02A4A93423BD004B010BD00240194B8
:10299000274B5A6C42F001025A645B6C03F001034E
:1029A0000193019B22460221182000F0D3FE18203B
:1029B00000F008FF22460221192000F0CBFE19206A
:1029C00000F000FF224602211A2000F0C3FE1A2068
:1029D00000F0F8FE224602211B2000F0BBFE1B2067
:1029E00000F0F0FED0E700230293114B1A6C42F086
:1029F00001021A641B6C03F001030293029BC3E7FC
:102A0000002203920A4B196C41F0020119641B6CFD
:102A100003F002030393039B01211D2000F09AFEA3
:102A20001D2000F0CFFEAFE7000001400004004091
:102A30000038024000B587B000230193029303934E
:102A4000049305930368B3F1804F02D007B05DF89B
:102A500004FB002300930A4B1A6B42F001021A6335
:102A60001B6B03F001030093009B202301930223BF
:102A700002930123059301A9024801F0DFF8E5E77D
:102A8000003802400000024010B588B000230393D4
:102A90000493059306930793026803F1804303F5BB
:102AA00088339A4201D008B010BD0024019403F588
:102AB00094335A6C42F010025A645A6C02F01002BD
:102AC0000192019A02941A6B42F001021A631B6B85
:102AD00003F001030293029B4FF4C06303930223AC
:102AE0000493032306930723079303A9054801F0E2
:102AF000A5F822462146252000F02CFE252000F0D6
:102B000061FED0E700000240FEE7FEE7FEE7FEE7D9
:102B1000FEE770477047704708B500F00DFB08BD31
:102B200008B5024800F085FC08BD00BFF011002088
:102B300008B5024802F042F808BD00BFB8120020F4
:102B400038B5FEF7D9FF0546FEF7DAFF0446FFF772
:102B500039F9FDF743FE01462868FDF78BFD286033
:102B60004FF07E512068FDF785FD2060014802F09E
:102B700025F838BDB812002008B5024802F01EF84A
:102B800008BD00BFB812002008B5024802F016F8D0
:102B900008BD00BFB812002070B590B0A74802F081
:102BA0000DF80DF12C0CA64C0FCCACE80F002368EF
:102BB000ACF80030FFF7BCF90446002206A9A14892
:102BC00001F0B7FEA049A148FEF762FEFEF7C8FF7C
:102BD0000546FEF7C1FF2B68002B03DD9A4A1278E9
:102BE000934206DB0368002B32DD984A1278934249
:102BF0002EDA0121964801F001F906464FF4807162
:102C0000944801F0FBF80546934A138801339BB2C0
:102C10001380FA2B09D0012C26D0022C00F08A80D8
:102C2000032C00F0378110B070BDB6FA86F252095D
:102C30000121874801F0E9F8B5FA85F252094FF40D
:102C40008071844801F0E1F8834B00221A80E2E7AA
:102C5000012211467E4801F0D8F801224FF480711C
:102C60007C4801F0D2F8D6E777497848FEF710FEA5
:102C70007A4B19788B1E052B10D8DFE803F003265A
:102C80000F0F3845714B1B78754AA2FB032310AA1E
:102C900002EBD30313F8142C724B1A7049B2714B28
:102CA00093F90000FFF7BCFDFFF7AAFD6B4A13780C
:102CB0000133DBB21370042B38D0684B1B78082B20
:102CC000ABD1664B02221A70A7E7604B1A78644BAF
:102CD000A3FB0203DB0803EB8303A2EB430310AA6D
:102CE00052FA83F313F8142C5E4B1A70D6E7564B46
:102CF0001B785B4AA2FB032310AA02EBD30313F851
:102D0000142C584B1A70C9E74F4B1A78544BA3FB3D
:102D10000203DB0803EB8303A2EB430310AA52FA7E
:102D200083F313F8142C4F4B1A70B7E7134606229F
:102D30001A70C2E7FEF7E8FE0190484B19780729A0
:102D400013D8DFE801F004283E42533E69919DF814
:102D50000730642B1DD0424AA2FB032310AA02EBCA
:102D6000D30313F8142C3F4B1A7049B23D4B93F91F
:102D70000000FFF755FDFFF743FD384A1378013394
:102D8000DBB21370082B7FF44BAF134600221A708E
:102D900046E70222E7E79DF80730642B0FD0304A60
:102DA000A2FB0302D20802EB8202A3EB420310AAA9
:102DB00052FA83F313F8142C2A4B1A70D5E7022227
:102DC000FAE7284B02221A70CFE79DF80530642BF2
:102DD0000AD0234AA2FB032310AA02EBD30313F861
:102DE000142C204B1A70C0E70222FAE79DF8053038
:102DF000642B0FD01A4AA2FB0302D20802EB820214
:102E0000A3EB420310AA52FA83F313F8142C154BC8
:102E10001A70AAE70222FAE79DF80630642B0AD05E
:102E20000F4AA2FB032310AA02EBD30313F8142CBE
:102E30000C4B1A7099E70222FAE700BF48130020F2
:102E400080CE000898120020F0130020F613002016
:102E50000008024000040240F2130020F513002095
:102E6000CDCCCCCCF41300209DF80630642B0FD0D1
:102E7000554AA2FB0302D20802EB8202A3EB4203F3
:102E800010AA52FA83F313F8142C504B1A706CE703
:102E90000222FAE701A8FEF751FE4D4B19780729E7
:102EA00013D8DFE801F004283E42533E697A9DF8CA
:102EB0000430642B1DD0444AA2FB032310AA02EB6A
:102EC000D30313F8142C414B1A7049B23F4B93F9BA
:102ED0000000FFF7A5FCFFF793FC3D4A1378013390
:102EE000DBB21370082B7FF49EAE134600221A70DB
:102EF00099E60222E7E79DF80430642B0FD0324AAE
:102F0000A2FB0302D20802EB8202A3EB420310AA47
:102F100052FA83F313F8142C2C4B1A70D5E70222C3
:102F2000FAE72A4B02221A70CFE79DF80530642B8E
:102F30000AD0254AA2FB032310AA02EBD30313F8FD
:102F4000142C224B1A70C0E70222FAE79DF80530D4
:102F5000642B0FD01C4AA2FB0302D20802EB8202B0
:102F6000A3EB420310AA52FA83F313F8142C174B65
:102F70001A70AAE70222FAE79DF80630642B0AD0FD
:102F8000114AA2FB032310AA02EBD30313F8142C5B
:102F90000E4B1A7099E70222FAE79DF80630642B6F
:102FA0000FD0094AA2FB0302D20802EB8202A3EB74
:102FB000420310AA52FA83F313F8142C034B1A702D
:102FC00083E70222FAE700BFCDCCCCCCF41300207B
:102FD000F513002010B5054C204602F0BBFB012282
:102FE0000349204602F011FD10BD00BF90130020E0
:102FF000100A002008B5024800F032FD08BD00BFED
:10300000381200200120704708B502F049FD162350
:1030100003604FF0FF3008BD08B54FF0FF31FFF7F8
:10302000F3FFFEE770B50C461646002506E0AFF349
:103030000080214601F8010B01350C46B542F6DB54
:10304000304670BD70B50C461646002504E014F8F5
:10305000010BAFF300800135B542F8DB304670BD9F
:1030600008B503460B4A126842B10A4A1068034485
:103070006A46934206D8074A136008BD054A0649C6
:103080001160F2E702F00CFD0C2303604FF0FF30FB
:10309000F3E700BFF8130020481400204FF0FF3082
:1030A00070474FF400534B60002070470120704779
:1030B000002070477047000010B504460E4B18788A
:1030C0004FF47A73B3FBF0F30C4A1068B0FBF3F0E3
:1030D00000F086FB68B90F2C01D901200AE000221C
:1030E00021464FF0FF3000F035FB054B1C600020FF
:1030F00000E0012010BD00BF0800002004000020F7
:103100000C00002008B50B4B1A6842F400721A60DC
:103110001A6842F480621A601A6842F480721A6077
:10312000032000F005FB0020FFF7C6FFFFF79AFB26
:10313000002008BD003C0240034A1168034B1B7885
:103140000B441360704700BFFC13002008000020F0
:10315000014B1868704700BFFC13002038B50446C7
:10316000FFF7F6FF0546B4F1FF3F02D0044B1B7892
:103170001C44FFF7EDFF401BA042FAD338BD00BF4F
:10318000080000204A4B5A6822F440325A605A68BC
:1031900041680A435A600268536823F4807353609D
:1031A00002685368016943EA012353600268536867
:1031B00023F0407353600268536881680B43536087
:1031C0000268936823F40063936002689368C1689F
:1031D0000B439360826A374B9A4257D002689368D8
:1031E00023F07063936002689368816A0B43936075
:1031F0000268936823F04053936002689368C16A41
:103200000B4393600268936823F0020393600268A3
:103210009368017E43EA4103936090F82030002BCD
:103220003FD00268536843F40063536002685368F8
:1032300023F46043536001684B68426A013A43EAF1
:1032400042334B600268D36A23F47003D36201688F
:10325000CB6AC269013A43EA0253CB6202689368BF
:1032600023F4007393600268936890F8301043EA87
:10327000412393600268936823F48063936002683B
:103280009368416943EA81239360704702689368B9
:1032900023F0706393600268936823F04053936057
:1032A000B0E70268536823F400635360CAE700BFC5
:1032B000002301400100000F38B310B50446036C31
:1032C00043B1236C13F0100F0BD00120002384F8BE
:1032D0003C3010BDFFF7E2FA0023636484F83C3011
:1032E000EFE7236C23F4885323F0020343F0020337
:1032F00023642046FFF746FF00206064236C23F020
:10330000030343F001032364E0E70120704700005A
:1033100082B00023019390F83C30012B75D001233B
:1033200080F83C3003689A6812F0010F13D19A6854
:1033300042F001029A60384B1B68384AA2FB032313
:103340009B0C03EB4303019302E0019B013B0193C0
:10335000019B002BF9D10268936813F0010F49D04B
:10336000036C23F4E06323F0010343F480730364EC
:10337000536813F4806F05D0036C23F4405343F477
:1033800080530364036C13F4805F20D0436C23F0FC
:1033900006034364002380F83C306FF0220313607F
:1033A0000268536843F0806343F0200353601C4B72
:1033B0005B6813F01F0F0DD103689A6812F0405F2D
:1033C00025D19A6842F080429A6000201BE00023D9
:1033D0004364DFE70368134A934201D0002012E000
:1033E0009A6812F0405F14D19A6842F080429A6065
:1033F000002008E0036C43F010030364436C43F0C7
:1034000001034364002002B070470220FBE7002064
:10341000F9E70020F7E700BF0400002083DE1B432C
:1034200000230140002001400368D86C70477047BA
:10343000704738B5044602681168536811F0020FEE
:103440002FD003F0200363B3036C13F0100F03D1EC
:10345000036C43F400730364936813F0405F19D165
:10346000237EBBB9D36A13F4700F03D0936813F4AF
:10347000806F0FD1536823F020035360236C23F433
:1034800080732364236C13F4805F03D1236C43F0B7
:10349000010323642046FEF78DFC23686FF01202BF
:1034A0001A60236819685A6802F0800211F0040F4C
:1034B00036D0002A34D0226C12F0100F03D1226CC7
:1034C00042F4005222649A6812F4401F21D19A6B90
:1034D00012F4401F03D09A6812F4806F19D15A6811
:1034E00012F4806F15D19A6812F0405F11D1227EDC
:1034F0007AB95A6822F080025A60236C23F4805310
:103500002364236C13F4807F03D1236C43F0010305
:103510002364204600F00AF923686FF00C021A6059
:1035200022681168536803F0400311F0010F04D0C2
:103530001BB1136813F0010F09D122681168536899
:1035400003F0806311F0200F00D063B938BD236C05
:1035500043F4803323642046FFF769FF23686FF04C
:1035600001021A60E9E7636C43F0020363646FF0E1
:10357000200515602046FFF75BFF23681D60E5E727
:1035800030B482B00023019390F83C30012B00F05E
:10359000C080012380F83C300B68092B41D90468B6
:1035A000E2689BB203EB43031E3B4FF0070C0CFA9F
:1035B00003F322EA0303E3600468E2680B8803EB89
:1035C00043031E3B8D6805FA03F31343E3604B6826
:1035D000062B3DD80468626B03EB8303053B4FF079
:1035E0001F0C0CFA03F322EA030363630468626BA3
:1035F0004B6803EB8303053BB1F800C00CFA03F3FF
:10360000134363630268444B9A4251D00268424BB1
:103610009A425AD0002380F83C30184602B030BCA1
:103620007047046822699BB203EB43034FF0070C19
:103630000CFA03F322EA03032361046822690B886E
:1036400003EB43038D6805FA03F313432361BEE7DD
:103650000C2B16D805682A6B03EB8303233B1F242E
:1036600004FA03F322EA03032B6305682A6B4B6811
:1036700003EB8303233B0C8804FA03F313432B630C
:10368000C0E70568EA6A03EB8303413B1F2404FAA1
:1036900003F322EA0303EB620568EA6A4B6803EB73
:1036A0008303413B0C8804FA03F31343EB62A9E75D
:1036B0000B68122BAAD1194B5A6822F400025A60E7
:1036C0005A6842F480025A60A0E70B68144A934299
:1036D00001D0112B9ED1114B5A6822F480025A60FE
:1036E0005A6842F400025A600A680D4B9A4291D11E
:1036F0000C4B1B680C4AA2FB03239B0C03EB8303BC
:103700005B000193019B002B84D0019B013B019343
:10371000F8E7022082E700BF0020014000230140BB
:10372000120000100400002083DE1B4370470000DD
:10373000074AD36823F4E0631B041B0C000200F467
:10374000E060034343F0BF6343F40033D36070474A
:1037500000ED00E000B5194BDB68C3F30223C3F1B1
:10376000070CBCF1040F28BF4FF0040C03F1040E4A
:10377000BEF1060F18D9033B4FF0FF3E0EFA0CFCCA
:1037800021EA0C0199400EFA03F322EA03031943DC
:1037900000280BDB0901C9B200F1604000F561406F
:1037A00080F800135DF804FB0023E5E700F00F004C
:1037B0000901C9B2024B1954F4E700BF00ED00E063
:1037C00014ED00E0002807DB00F01F024009012390
:1037D0009340024A42F82030704700BF00E100E009
:1037E0000138B0F1807F0BD24FF0E0235861054AD9
:1037F000F02182F823100020986107221A61704797
:103800000120704700ED00E010B40368D9B2103910
:103810000B4AA2FB014212090A4CA25CC2655F2955
:1038200008D923F47F7323F0030304338365806D89
:1038300010BC704723F47F7323F003038365F6E71E
:10384000ABAAAAAAACCE0008836A826992B9012BFE
:103850000AD0022B02D00BB100207047C36A13F0CC
:10386000807F28D100207047C36AB3F1C07F24D085
:1038700000207047B2F5005F09D0022B25D9032B39
:1038800025D1C36A13F0807F23D100207047032B1A
:1038900003D8DFE803F01404140A00207047C36A59
:1038A00013F0807F0DD100207047C36AB3F1C07F51
:1038B00009D0002070470120704701207047012087
:1038C0007047012070470120704701207047002099
:1038D000704701207047000070B50446FFF738FCC0
:1038E000002C5BD00546022384F83530002384F891
:1038F00034302268136823F00103136023681A68C8
:1039000012F0010F0AD0FFF723FC431B052BF5D95A
:1039100020236365032084F8350070BD1A682048B1
:1039200010406168A2680A43E1680A4321690A43BA
:1039300061690A43A1690A43E1690A43216A0A43AA
:103940000243616A04291ED01A602668756925F051
:103950000705636A1D43042B07D1A36A1D43E36A6D
:103960001BB12046FFF770FF90B975612046FFF745
:103970004BFFE26D3F23934083600020606501238D
:1039800084F83530C9E7E16A206B01430A43DBE77D
:1039900040236365012084F83500BEE70120BCE7C1
:1039A0003F8010F070B50446866DFFF7D1FB94F8A8
:1039B0003530DBB2022B06D080236365002384F808
:1039C0003430012070BD05462268136823F01603C9
:1039D00013602268536923F080035361236CE3B1C1
:1039E0002268136823F0080313602268136823F029
:1039F0000103136023681B6813F0010F11D0FFF758
:103A0000A7FB431B052BF5D920236365032084F80E
:103A10003500002384F83430D4E7A36C002BDFD1C9
:103A2000E3E7E26D3F239340B360012384F8353030
:103A3000002084F83400C5E790F83530DBB2022B63
:103A400003D08023436501207047052380F835307B
:103A50000268136823F00103136000207047000020
:103A6000F0B583B0044600230193724B1D68724B7E
:103A7000A3FB0535AD0A876D3E68C26D08239340F0
:103A8000334210D003681A6812F0040F0BD01A6882
:103A900022F004021A60C26D08239340BB60436D9C
:103AA00043F001034365E26D01239340334209D0A3
:103AB0002268526912F0800F04D0BB60636D43F03E
:103AC00002036365E26D04239340334209D0226808
:103AD000126812F0020F04D0BB60636D43F0040360
:103AE0006365E26D10239340334224D0226812684C
:103AF00012F0080F1FD0BB6023681A6812F4802FE1
:103B00000DD01B6813F4002F04D1236C9BB1204609
:103B1000984710E0A36C73B1204698470BE01A68F1
:103B200012F4807F03D11A6822F008021A60236C15
:103B30000BB120469847E26D20239340334255D085
:103B40002268126812F0100F50D0BB6094F8353024
:103B5000DBB2052B0ED023681A6812F4802F33D005
:103B60001B6813F4002F2AD1636C002B3ED0204633
:103B700098473BE02268136823F01603136022681D
:103B8000536923F080035361236CA3B12268136847
:103B900023F008031360E26D3F239340BB600123D1
:103BA00084F83530002384F83430236D002B3FD067
:103BB000204698473CE0A36C002BE7D1EBE7E36B92
:103BC000A3B12046984711E01A6812F4807F09D10A
:103BD0001A6822F010021A60012384F8353000239D
:103BE00084F83430E36B0BB120469847636DFBB12A
:103BF000636D13F0010F17D0052384F83530226868
:103C0000136823F001031360019B01330193AB425E
:103C100004D823681B6813F0010FF5D1012384F841
:103C20003530002384F83430E36C0BB120469847DC
:103C300003B0F0BD04000020B5814E1B00230F2B04
:103C400000F2D28070B582B060E085685E00032427
:103C5000B44025EA0405CC68B4402C438460456830
:103C600025EA02054C68C4F300129A402A434260D8
:103C70005AE0DC08083450F8246003F0070295008D
:103C80000F22AA4026EA020E0A69AA4042EA0E0260
:103C900040F824205CE0042200E0002202FA0EF248
:103CA0002A430234514D45F82420514A14686FEAE2
:103CB0000C0224EA0C054E6816F4803F01D04CEA51
:103CC00004054B4C2560646802EA04054E6816F44E
:103CD000003F01D04CEA0405454C6560A46802EA47
:103CE00004054E6816F4801F01D04CEA0405404CD0
:103CF000A560E46822404D6815F4001F01D04CEA2D
:103D000004023B4CE26001330F2B6BD801229A4036
:103D10000C6804EA020C32EA0404F4D14C6804F0A2
:103D20000304013C012C90D94A6802F00302032AE3
:103D300009D0C4685D000322AA4024EA02048A680C
:103D4000AA402243C2604A6802F00302022A90D0CD
:103D500004684FEA430E032202FA0EF224EA020438
:103D60004A6802F0030202FA0EF2224302604A6835
:103D700012F4403FC7D0002201921E4A546C44F412
:103D800080445464526C02F480420192019A9C086F
:103D9000A51C164A52F8255003F003024FEA820E82
:103DA0000F2202FA0EF225EA0205134A90423FF46E
:103DB00074AF02F5806290420ED002F580629042AC
:103DC0000CD002F5806290420AD002F580629042E7
:103DD0003FF461AF072261E701225FE702225DE75E
:103DE00003225BE702B070BD704700BF003801409E
:103DF000003C0140003802400000024003691942C3
:103E000001D001207047002070470AB181617047DE
:103E10000904816170470000002800F0E08170B55E
:103E200082B00446036813F0010F3BD09F4B9B68A0
:103E300003F00C03042B2CD09C4B9B6803F00C0369
:103E4000082B21D06368B3F5803F4FD0B3F5A02F86
:103E500052D0964B1A6822F480321A601A6822F403
:103E600080221A606368002B50D0FFF771F9054675
:103E70008E4B1B6813F4003F14D1FFF769F9401B08
:103E80006428F5D90320B1E1884B5B6813F4800FF7
:103E9000D8D0864B1B6813F4003F03D06368002B17
:103EA00000F09F81236813F0020F54D07F4B9B6872
:103EB00013F00C0F3ED07D4B9B6803F00C03082BD6
:103EC00033D0E368002B68D0794B01221A60FFF7EA
:103ED0003FF90546754B1B6813F0020F54D1FFF7ED
:103EE00037F9401B0228F5D903207FE16F4A136898
:103EF00043F480331360B5E76C4B1A6842F48022B8
:103F00001A601A6842F480321A60ABE7FFF720F9B2
:103F10000546664B1B6813F4003FC3D0FFF718F942
:103F2000401B6428F5D9032060E1604B5B6813F403
:103F3000800FC6D15D4B1B6813F0020F03D0E368FE
:103F4000012B40F05081594A136823F0F80321698E
:103F500043EAC1031360236813F0080F42D063697A
:103F60006BB3534B0122C3F8802EFFF7F1F80546DF
:103F70004E4B5B6F13F0020F34D1FFF7E9F8401B93
:103F80000228F5D9032031E1484A136823F0F803E9
:103F9000216943EAC1031360DDE7454B00221A6043
:103FA000FFF7D6F80546414B1B6813F0020FD2D03D
:103FB000FFF7CEF8401B0228F5D9032016E13C4B51
:103FC0000022C3F8802EFFF7C3F80546374B5B6F1E
:103FD00013F0020F06D0FFF7BBF8401B0228F5D9FB
:103FE000032003E1236813F0040F77D02F4B1B6CE1
:103FF00013F0805F33D1002301932C4B1A6C42F0F5
:1040000080521A641B6C03F080530193019B0125BD
:10401000284B1B6813F4807F23D0A368012B34D076
:10402000052B38D0214B1A6F22F001021A671A6F44
:1040300022F004021A67A368002B3DD0FFF788F82E
:1040400006461A4B1B6F13F0020F46D1FFF780F89C
:10405000801B41F288339842F3D90320C6E0002543
:10406000D6E7144A136843F480731360FFF770F8BF
:104070000646104B1B6813F4807FCED1FFF768F81B
:10408000801B0228F5D90320B0E0084A136F43F0E3
:1040900001031367CFE7054B1A6F42F004021A675A
:1040A0001A6F42F001021A67C5E700BF00380240EC
:1040B0000000474200700040FFF74AF80646524BA6
:1040C0001B6F13F0020F08D0FFF742F8801B41F27C
:1040D00088339842F3D9032088E0EDB9A369002B17
:1040E00000F08380484A926802F00C02082A51D0FE
:1040F000022B17D0454B00221A66FFF729F8044619
:10410000414B1B6813F0007F42D0FFF721F8001BE2
:104110000228F5D9032069E03B4A136C23F0805351
:104120001364DBE7394B00221A66FFF711F80546E6
:10413000354B1B6813F0007F06D0FFF709F8401BD2
:104140000228F5D9032051E0E369226A1343626A29
:1041500043EA8213A26A5208013A43EA0243E26A3E
:1041600043EA0263284A5360284B01221A66FEF78D
:10417000EFFF0446244B1B6813F0007F06D1FEF7C7
:10418000E7FF001B0228F5D903202FE000202DE0D7
:1041900000202BE0012B2BD01B4B5B6803F480012C
:1041A000E269914226D103F03F02216A8A4223D17B
:1041B000616A47F6C0721A40B2EB811F1ED103F448
:1041C0004031A26A5208013AB1EB024F18D103F014
:1041D0007063E26AB3EB026F14D1002006E00120A5
:1041E0007047012002E0012000E0002002B070BD15
:1041F0000120FBE70120F9E70120F7E70120F5E7BF
:104200000120F3E70120F1E70038024000004742B7
:1042100008B5314B9B6803F00C03042B57D0082BD7
:1042200057D12D4B5A6802F03F025B6813F4800FA0
:104230002AD0294B5968C1F3881C4FEA4C11B1EBC5
:104240000C006EEB0E0E4FEA8E1343EA9063810171
:10425000091A63EB0E03DB0043EA5173C90011EB4B
:104260000C0C43F10003590200234FEA4C2041EAB1
:10427000DC51FCF757FC184B5B68C3F30143013377
:104280005B00B0FBF3F025E0134B5968C1F3881CC9
:104290004FEA4C11B1EB0C006EEB0E0E4FEA8E1391
:1042A00043EA90638101091A63EB0E03DB0043EAE2
:1042B0005173C90011EB0C0C43F100039902002368
:1042C0004FEA8C2041EA9C51FCF72CFCD3E70348D1
:1042D00000E0034808BD00BF0038024000127A0029
:1042E0000024F400002800F09B8070B50D460446C1
:1042F0004F4B1B6803F007038B4208D2CBB24C4AEA
:104300001370136803F007038B4240F08B8023681F
:1043100013F0020F17D013F0040F04D0454A93682E
:1043200043F4E0539360236813F0080F04D0414A2C
:10433000936843F4604393603E4A936823F0F0032C
:10434000A1680B439360236813F0010F32D06368B8
:10435000012B21D09A1E012A25D9364A126812F063
:10436000020F61D033498A6822F0030213438B6045
:10437000FEF7EEFE06462F4B9B6803F00C036268C7
:10438000B3EB820F16D0FEF7E3FE801B41F28833B9
:104390009842F0D9032042E0264A126812F4003F06
:1043A000E0D101203BE0234A126812F0007FD9D10E
:1043B000012034E01E4B1B6803F00703AB4207D912
:1043C000EAB21B4B1A701B6803F00703AB422DD1F6
:1043D000236813F0040F06D0164A936823F4E053C1
:1043E000E1680B439360236813F0080F07D0114A6C
:1043F000936823F46043216943EAC1039360FFF7A4
:1044000007FF0C4B9B68C3F303130B4AD35CD840E4
:104410000A4B18600A4B1868FEF74EFE002070BD6C
:10442000012070470120FAE70120F8E70120F6E7B4
:10443000003C02400038024094CE000804000020F6
:104440000C000020014B1868704700BF04000020DA
:1044500008B5FFF7F7FF044B9B68C3F38223034AB9
:10446000D35CD84008BD00BF00380240A4CE00088D
:1044700008B5FFF7E7FF044B9B68C3F34233034AD9
:10448000D35CD84008BD00BF00380240A4CE00086D
:1044900030B583B00446036813F0050F0ED12368CE
:1044A00013F0020F38D1236813F0080F00F09D803D
:1044B000227D4F4BC3F8E021002097E04D4B0022B6
:1044C0009A66FEF745FE05464B4B1B6813F0006FDE
:1044D00006D0FEF73DFE431B022BF5D9032085E0F5
:1044E0006368A26843EA8213E26843EA0273424ABD
:1044F000C2F884303F4B01229A66FEF729FE05463A
:104500003D4B1B6813F0006FC9D1FEF721FE401B25
:104510000228F5D9032069E000230193364B1A6C79
:1045200042F080521A641B6C03F080530193019B8C
:10453000324A136843F480731360FEF709FE0546A0
:104540002E4B1B6813F4807F06D1FEF701FE431B40
:10455000022BF5D9032049E0274B1B6F13F440735E
:1045600014D0226902F440729A420FD0224B1A6F83
:1045700022F440721F490120C1F8400E0020C1F80A
:10458000400E1A671B6F13F0010F12D1236903F459
:104590004072B2F5407F1DD0174A936823F4F81398
:1045A000936015490B6F2269C2F30B0213430B672B
:1045B00079E7FEF7CDFD05460F4B1B6F13F0020F99
:1045C000E4D1FEF7C5FD401B41F288339842F3D990
:1045D00003200BE008498A6822F4F81223F07043A4
:1045E00023F4407313438B60DBE7002003B030BD3E
:1045F000001047420000474200380240007000406F
:1046000038B504460268D36823F0A003D360FEF7F0
:104610009FFD05462368DB6813F0200F07D1FEF7E6
:1046200097FD401BB0F57A7FF4D9032000E000200D
:1046300038BD38B50368DA6812F0400F01D00020A9
:1046400038BD04464FF0FF32DA60FEF781FD0546C3
:104650002368DB6813F0400F07D1FEF779FD431B99
:10466000B3F57A7FF4D90320EAE70020E8E738B50C
:1046700000285CD00446437F002B41D0022363779F
:104680002368CA225A62236853225A622046FFF7DF
:10469000D0FF0546002837D12268936823F4E00351
:1046A00023F04003936021688A68636820690343AC
:1046B0006069034313438B602368E2681A612268D0
:1046C0001369A16843EA014313612268D36823F0A8
:1046D0008003D36023689B6813F0200F1BD02268EF
:1046E000136C23F4802313642268136CA1690B43B9
:1046F00013642368FF225A6201236377284638BD7A
:104700000377FEF727F9B9E72368FF225A620423EB
:1047100063770125F2E72046FFF772FF0028DED01D
:104720002368FF225A62042363770125E6E7012507
:10473000E4E7002302E001330A38C0B20928FAD8BE
:104740001B01DBB218437047F8B5037F012B78D00B
:1047500004460E460123037702234377002A47D1FC
:1047600003689B6813F0400F01D10023CB703078B1
:10477000FFF7DFFF05047078FFF7DBFF45EA002550
:10478000B078FFF7D6FF0543F07845EA0045236887
:10479000CA225A62236853225A622046FFF749FF11
:1047A0000746002836D1236805F07F3525F0FE4501
:1047B0001D602268936823F48023936021688B68CE
:1047C000F2683069024313438B602268D36823F098
:1047D0008003D36023689B6813F0200F23D02368E5
:1047E000FF225A6201236377002323773846F8BDFE
:1047F00003689B6813F0400F01D10023CB7035781C
:104800007078000240EA0540B5782843F57840EA20
:104810000545BCE72368FF225A620423637700231F
:1048200023770127E2E72046FFF7EAFE0028D6D0EB
:104830002368FF225A62042363770023237701272A
:10484000D4E70227D2E770B5037F012B66D0044678
:104850000E4601230377022343773AB94B7813F0CE
:10486000100F03D003F0EF030A334B70002A33D14B
:10487000F078FFF75EFF05047078FFF75AFF45EA0E
:104880000025B078FFF755FF0543307845EA4035FD
:104890002368CA225A62236853225A622046FFF7CD
:1048A000C8FE064618BB236825F07F4525F0C005E5
:1048B0005D602268D36823F08003D36023689B681F
:1048C00013F0200F1CD02368FF225A620123637764
:1048D00000232377304670BDF5787078000240EAF7
:1048E0000540B5782843357840EA4535D0E7236858
:1048F000FF225A6204236377002323770126E9E726
:104900002046FFF77DFE0028DDD02368FF225A6293
:1049100004236377002323770126DBE70226D9E708
:10492000030903EB830300F00F0000EB4300C0B268
:10493000704770B50C4603689B6A4B6003681B693F
:10494000C3F30E038B6003681D68C5F30641C5F30E
:1049500005402070C5F30626667005F07F05A5703A
:1049600001F04003E37052B9FFF7DAFF20703046E0
:10497000FFF7D6FF60702846FFF7D2FFA070002037
:1049800070BD70B503685B68C3F30740C870C3F3BC
:1049900004264E7003F03F058D70C3F342330B7055
:1049A0005AB90C46FFF7BCFFE0703046FFF7B8FF7E
:1049B00060702846FFF7B4FFA070002070BD036848
:1049C000503343F8212070470368503353F82100D7
:1049D0007047000070B4036A23F001030362036AA6
:1049E0004668826922F073020C6844EA020523F0EB
:1049F00002028B6813430D4CA04209D00B4CA0421D
:104A00000DD0466085614A684263036270BC70479E
:104A100023F00803CA68134323F00403EEE726F4E7
:104A200040764A6932438E691643EAE70000014046
:104A300030B4036A23F480730362036A4568C26971
:104A400022F073020C68224323F400738C6843EA5B
:104A500004230F4CA04209D00D4CA0420ED045605B
:104A6000C2614A68C263036230BC704723F40063CA
:104A7000CC6843EA042323F48063EDE725F4405532
:104A80004C6945EA04158C6945EA0415E7E700BF5F
:104A90000000014030B4036A23F480530362036AC8
:104AA0004468C26922F4E6420D6842EA052223F412
:104AB00000538D6843EA0533074DA84206D0446091
:104AC000C2614A680264036230BC704724F48044C7
:104AD0004D6944EA8514F2E70000014010B4036A0E
:104AE000046A24F001040462846924F0F00C4CEAA6
:104AF000021223F00A030B438261036210BC704769
:104B000010B4046A24F0100404628469036A24F473
:104B1000704C4CEA023223F0A00343EA0113826195
:104B2000036210BC7047836823F070030B4343F0AB
:104B3000070383607047000090F83D30DBB2012B23
:104B40002FD1022380F83D300268D36843F001037F
:104B5000D3600368154A934218D0B3F1804F15D043
:104B6000A2F57C42934211D002F5806293420DD0AF
:104B700002F58062934209D002F59A32934205D041
:104B80001A6842F001021A60002070479A6802F029
:104B90000702062A07D01A6842F001021A600020B4
:104BA0007047012070470020704700BF000001409F
:104BB00070477047704770477047704710B504469C
:104BC00003681A6912F0020F11D0DA6812F0020FAE
:104BD0000DD06FF002021A610123037703689B690D
:104BE00013F0030F70D0FFF7E6FF0023237723684D
:104BF0001A6912F0040F12D0DA6812F0040F0ED006
:104C00006FF004021A610223237723689B6913F46F
:104C1000407F5FD02046FFF7CEFF00232377236835
:104C20001A6912F0080F12D0DA6812F0080F0ED0CD
:104C30006FF008021A61042323772368DB6913F0FD
:104C4000030F4ED02046FFF7B6FF002323772368DB
:104C50001A6912F0100F12D0DA6812F0100F0ED08D
:104C60006FF010021A61082323772368DB6913F4BD
:104C7000407F3DD02046FFF79EFF00232377236827
:104C80001A6912F0010F03D0DA6812F0010F36D161
:104C900023681A6912F0800F03D0DA6812F0800FCF
:104CA00034D123681A6912F0400F03D0DA6812F089
:104CB000400F32D123681A6912F0200F03D0DA684E
:104CC00012F0200F30D110BDFFF774FF2046FFF720
:104CD00073FF8AE72046FFF76DFF2046FFF76CFF62
:104CE0009BE72046FFF766FF2046FFF765FFACE72E
:104CF0002046FFF75FFF2046FFF75EFFBDE76FF03E
:104D000001021A612046FFF754FFC1E76FF08002ED
:104D10001A61204600F0A7FAC3E76FF040021A615B
:104D20002046FFF74AFFC5E76FF020021A612046D0
:104D300000F098FAC7E700000368254A90420ED0B9
:104D4000B0F1804F0BD0A2F57C42904207D002F523
:104D50008062904203D002F58062904203D123F03A
:104D600070034A6813431A4A90421AD0B0F1804F38
:104D700017D0A2F57C42904213D002F58062904297
:104D80000FD002F5806290420BD002F59A32904229
:104D900007D002F58062904203D002F58062904213
:104DA00003D123F44073CA68134323F080034A6994
:104DB000134303608B68C3620B688362044B9842A1
:104DC00002D00123436170470B690363F9E700BF19
:104DD0000000014040B310B5044690F83D30F3B1F7
:104DE000022384F83D30214651F8040BFFF7A4FF5D
:104DF000012384F8463084F83E3084F83F3084F84C
:104E0000403084F8413084F8423084F8433084F8EC
:104E1000443084F8453084F83D30002010BD80F8DF
:104E20003C30FDF7A5FDDBE70120704740B310B52E
:104E3000044690F83D30F3B1022384F83D3021461A
:104E400051F8040BFFF778FF012384F8463084F80B
:104E50003E3084F83F3084F8403084F8413084F8A4
:104E6000423084F8433084F8443084F8453084F884
:104E70003D30002010BD80F83C30FFF799FEDBE7A5
:104E80000120704730B4036A23F010030362036A01
:104E90004468826922F4E6420D6842EA052223F062
:104EA00020038D6843EA05130E4DA84209D00D4D2D
:104EB000A8420ED0446082614A688263036230BCBB
:104EC000704723F08003CD6843EA051323F04003C5
:104ED000EDE724F440644D6944EA85048D6944EAB1
:104EE0008504E7E70000014038B590F83C30012B1D
:104EF00066D004460D46012380F83C300C2A5AD86F
:104F0000DFE802F0075959591B5959593059595975
:104F100044000068FFF75EFD2268936943F00803D0
:104F200093612268936923F0040393612268936973
:104F300029690B43936100203EE00068FFF7A2FF60
:104F40002268936943F4006393612268936923F4B0
:104F50008063936122689369296943EA012393611D
:104F6000002029E00068FFF763FD2268D36943F061
:104F70000803D3612268D36923F00403D361226854
:104F8000D36929690B43D361002015E00068FFF75E
:104F900081FD2268D36943F40063D3612268D36939
:104FA00023F48063D3612268D369296943EA01232A
:104FB000D361002000E00120002384F83C3038BD9C
:104FC0000220FCE710B4846824F47F4C42EA0322F8
:104FD0000A4342EA0C02826010BC704790F83C30F1
:104FE000012B78D010B50446012380F83C30022311
:104FF00080F83D300268936823F47F4323F0770301
:1050000093600B68602B4CD029D8402B54D00CD91E
:10501000502B22D1CA6849680068FFF75FFD502114
:105020002068FFF780FD002005E0202B0DD009D976
:10503000302B0AD00120012384F83D30002384F86E
:105040003C3010BD0BB1102B05D119462068FFF77D
:105050006AFD0020EFE70120EDE70120EBE7B3F563
:10506000805F34D0B3F5005F0CD1CB684A688968A3
:105070000068FFF7A7FF2268936843F480439360BA
:105080000020D8E7702B24D1CB684A688968006873
:10509000FFF798FF2268936843F07703936000203E
:1050A000C9E7CA6849680068FFF72AFD60212068DF
:1050B000FFF739FD0020BEE7CA6849680068FFF7BE
:1050C0000DFD40212068FFF72EFD0020B3E70020F2
:1050D000B1E70120AFE70220704701F01F01012373
:1050E00003FA01FC036A23EA0C030362036A02FA6F
:1050F00001F10B430362704710B5044608460029CE
:1051000032D194F83E30DBB2013B18BF0123002BB3
:1051100063D1002841D1022384F83E3001220146A8
:105120002068FFF7DAFF23682E4A934245D02368B0
:105130002C4A934246D0B3F1804F43D0A2F57C4233
:1051400093423FD002F5806293423BD002F58062E9
:10515000934237D002F59A32934233D01A6842F024
:1051600001021A60002037E0042908D008290DD078
:1051700094F84130DBB2013B18BF0123C7E794F834
:105180003F30DBB2013B18BF0123C0E794F8403049
:10519000DBB2013B18BF0123B9E7042805D008287A
:1051A00007D0022384F84130B8E7022384F83F3067
:1051B000B4E7022384F84030B0E75A6C42F400426E
:1051C0005A64B4E79A6802F00702062A07D01A6800
:1051D00042F001021A60002010BD0120FCE700200F
:1051E000FAE700BF0000014090F83C30012B34D0BA
:1051F00010B4012380F83C30022380F83D3003686E
:105200005A689C6822F0700C0A6842EA0C025A60E4
:105210000368134A934212D0B3F1804F0FD0A2F526
:105220007C4293420BD002F58062934207D002F594
:105230008062934203D002F59A32934204D124F063
:1052400080044A6814439C60012380F83D300023A9
:1052500080F83C30184610BC70470220704700BFF1
:105260000000014070477047026802F10C0353E8E8
:10527000003F23F490730C3242E800310029F3D14F
:10528000026802F1140353E8003F23F001031432D3
:1052900042E800310029F3D1036B012B05D0202314
:1052A00080F83E30002303637047026802F10C036C
:1052B00053E8003F23F010030C3242E8003100298C
:1052C000F3D1ECE790F83D30DBB2212B01D0022086
:1052D00070478368B3F5805F17D0036A5A1C026277
:1052E0001A7803685A60C38C9BB2013B9BB2C3849B
:1052F0004BB90268D36823F08003D3600268D36897
:1053000043F04003D360002070470369002BE4D1D1
:10531000036A1B880268C3F308035360036A0233FD
:105320000362E0E738B504460268136923F440538A
:10533000C1680B43136183680269134342691343D5
:10534000C2691A430168CB6823F4164323F00C03A7
:105350001343CB600268536923F4407381690B43A4
:1053600053610368314A934206D002F5806293424A
:1053700002D0FFF76DF801E0FFF77AF8E369B3F5C3
:10538000004F29D00021031849411B1841F10001A9
:10539000C90041EA5371DB00181863684FEA8302C1
:1053A0004FEA937341F10001FBF7BCFB204DA5FBD5
:1053B00000325109642303FB11031B013233A5FBA7
:1053C00003235B0903F0F00202EB011203F00F0369
:1053D000216813448B6038BD0023021843EB03019E
:1053E000121841F10001C90041EA5271D2001018AF
:1053F00041F10001626892185B41FBF793FB0C4D91
:10540000A5FB00325109642303FB1103DB00323397
:10541000A5FB03235B095A0002F4F87202EB0112A8
:1054200003F00703216813448B60D4E700100140A8
:105430001F85EB512DE9F84305460F461646994660
:10544000DDF820802C68246837EA04030CBF4FF095
:10545000010C4FF0000CB4452DD1B8F1FF3FF1D055
:10546000B8F1000F05D0FDF773FEA0EB0900404531
:10547000E8D92A6802F10C0353E8003F23F4D07303
:105480000C3242E800310029F3D12A6802F11403FA
:1054900053E8003F23F00103143242E800310029B1
:1054A000F3D1202385F83D3085F83E30002385F880
:1054B0003C30032000E00020BDE8F88358B310B56D
:1054C000044690F83D300BB3242384F83D30226825
:1054D000D36823F40053D3602046FFF723FF2268EC
:1054E000136923F4904313612268536923F02A035C
:1054F00053612268D36843F40053D36000202064D2
:10550000202384F83D3084F83E3010BD80F83C30D4
:10551000FDF7BAFAD8E7012070472DE9F04182B0D3
:105520001E4690F83D30DBB2202B54D104460D4688
:105530009046002953D0002A53D090F83C30012BDC
:1055400051D0012380F83C3000230364212380F8EC
:105550003D30FDF7FDFD0746A4F82480A4F8268021
:10556000A368B3F5805F05D04FF00008002384F8EE
:105570003C3012E0236913B14FF00008F6E7A8466B
:105580000025F3E738F8023B2268C3F308035360B1
:10559000E28C92B2013A92B2E284E38C9BB273B194
:1055A00000963B46002280212046FFF743FFE0B9EA
:1055B000002DE7D015F8012B23685A60E8E7009624
:1055C0003B46002240212046FFF734FF78B92023D4
:1055D00084F83D3000E0022002B0BDE8F0810120F7
:1055E000FAE70120F8E70220F6E70320F4E70320BA
:1055F000F2E790F83D30DBB2202B19D1D1B1DAB10E
:1056000090F83C30012B19D0012380F83C30016226
:105610008284C28400230364212280F83D2080F824
:105620003C300168CA6842F08002CA601846704780
:105630000220704701207047012070470220704708
:10564000704708B50168CA6822F04002CA6020228B
:1056500080F83D20FFF7F4FF002008BD704708B533
:10566000806B0023C385C384FFF7F8FF08BD704734
:1056700090F83E30DBB2222B67D18368B3F5805FB0
:105680004DD0826AB3F5805F04D0002B54D10369FA
:10569000002B51D103685B681370836A0133836206
:1056A000C38D9BB2013B9BB2C385002B4FD100B58C
:1056B00083B00268D36823F02003D3600268D36804
:1056C00023F48073D3600268536923F001035361AC
:1056D000202380F83E30036B012B33D1002303637A
:1056E000026802F10C0353E8003F23F010030C3270
:1056F00042E800310029F3D103681A6812F0100F54
:1057000006D0002201921A6801925B680193019B06
:10571000818DFFF7ACFF002003B05DF804FB026948
:10572000002AAED1826A03685B68C3F30803138062
:10573000836A02338362B3E703685B6803F07F0325
:105740001370AAE7FCF746FBE5E70220704700204C
:105750007047000030B583B0044602681368D06813
:10576000516913F00F0505D113F0200F02D010F08E
:10577000200F19D12DB111F0010119D110F4907F32
:1057800016D1216B01297DD013F0800F03D010F0CA
:10579000800F40F0158113F0400F03D010F0400F40
:1057A00040F0128103B030BD2046FFF761FFF9E7FA
:1057B00013F0010F06D010F4807F03D0226C42F06A
:1057C0000102226413F0040F04D019B1226C42F0DC
:1057D0000202226413F0020F04D019B1226C42F0CD
:1057E0000402226413F0080F07D010F0200F00D13C
:1057F00019B1226C42F008022264226C002AD1D036
:1058000013F0200F02D010F0200F29D123685B691C
:1058100003F04003226C12F0080F00D163B320465E
:10582000FFF722FD23685B6913F0400F20D0226848
:1058300002F1140353E8003F23F04003143242E81E
:1058400000310029F3D1A36B73B1614A1A65A06BD3
:10585000FEF7F2F80028A5D0A06B036D9847A1E7EA
:105860002046FFF705FFD1E72046FFF7F7FE99E74F
:105870002046FFF7F3FE95E72046FFF7EFFE0023F3
:1058800023648FE713F0100F3FF47EAF10F0100F7A
:105890003FF47AAF00230193136801935368019397
:1058A000019B536913F0400F50D0A26B13685B68E3
:1058B0009BB2002B3FF476AFA18D99427FF672AF79
:1058C000E385D369B3F5807F37D0226802F10C03FA
:1058D00053E8003F23F480730C3242E80031002982
:1058E000F3D1226802F1140353E8003F23F00103CF
:1058F000143242E800310029F3D1226802F1140386
:1059000053E8003F23F04003143242E800310029FD
:10591000F3D1202384F83E3000232363226802F170
:105920000C0353E8003F23F010030C3242E800312F
:105930000029F3D1A06BFEF735F8A18DE38D9BB262
:10594000C91A89B22046FFF792FE2BE7A18DE38D9D
:105950009BB2C91A89B2E38D9BB2002B3FF422AFF0
:1059600000293FF41FAF226802F10C0353E8003F07
:1059700023F490730C3242E800300028F3D12268FF
:1059800002F1140353E8003F23F00103143242E80C
:1059900000300028F3D1202384F83E300023236315
:1059A000226802F10C0353E8003F23F010030C328D
:1059B00042E800300028F3D12046FFF758FEF1E618
:1059C0002046FFF77FFCEDE62046FFF73AFEE9E6CA
:1059D0005F560008034681628285C28500201864F4
:1059E000222283F83E2083F83C001968CA6842F4FA
:1059F0008072CA6019684A6942F001024A611A68F5
:105A0000D36843F02003D360704708B590F83E3068
:105A1000DBB2202B0DD171B17AB190F83C30012B63
:105A20000DD0012380F83C3000230363FFF7D2FF41
:105A300000E0022008BD0120FCE70120FAE7022077
:105A4000F8E70000DFF834D00D480E490E4A002375
:105A500002E0D458C4500433C4188C42F9D30B4A22
:105A60000B4C002301E013600432A242FBD3FDF78C
:105A700021FB00F01BF8FCF727FC70470000022018
:105A800000000020C00900205CD40008C0090020EC
:105A900048140020FEE700000A22002100F02CB983
:105AA000014B1868704700BF1000002070B50D4E04
:105AB0000D4D761BB61006D0002455F8043B01347A
:105AC0009847A642F9D1094E094D761B07F07EF999
:105AD000B61006D0002455F8043B01349847A6427E
:105AE000F9D170BD50D4000850D4000858D4000833
:105AF00050D40008830730B548D0541E002A3FD048
